{
  "contractName": "Auction",
  "abi": [
    {
      "inputs": [],
      "payable": false,
      "stateMutability": "nonpayable",
      "type": "constructor"
    },
    {
      "constant": true,
      "inputs": [],
      "name": "beneficiary",
      "outputs": [
        {
          "internalType": "address payable",
          "name": "",
          "type": "address"
        }
      ],
      "payable": false,
      "stateMutability": "view",
      "type": "function"
    },
    {
      "constant": true,
      "inputs": [],
      "name": "highestBid",
      "outputs": [
        {
          "internalType": "uint256",
          "name": "",
          "type": "uint256"
        }
      ],
      "payable": false,
      "stateMutability": "view",
      "type": "function"
    },
    {
      "constant": true,
      "inputs": [],
      "name": "highestBidder",
      "outputs": [
        {
          "internalType": "address",
          "name": "",
          "type": "address"
        }
      ],
      "payable": false,
      "stateMutability": "view",
      "type": "function"
    },
    {
      "constant": false,
      "inputs": [],
      "name": "bid",
      "outputs": [],
      "payable": true,
      "stateMutability": "payable",
      "type": "function"
    },
    {
      "constant": false,
      "inputs": [],
      "name": "withdraw",
      "outputs": [
        {
          "internalType": "bool",
          "name": "",
          "type": "bool"
        }
      ],
      "payable": false,
      "stateMutability": "nonpayable",
      "type": "function"
    },
    {
      "constant": false,
      "inputs": [],
      "name": "auctionEnd",
      "outputs": [],
      "payable": false,
      "stateMutability": "nonpayable",
      "type": "function"
    }
  ],
  "bytecode": "0x608060405234801561001057600080fd5b50336000806101000a81548173ffffffffffffffffffffffffffffffffffffffff021916908373ffffffffffffffffffffffffffffffffffffffff1602179055506000600360006101000a81548160ff02191690831515021790555061051c8061007b6000396000f3fe6080604052600436106100555760003560e01c80631998aeef1461005a5780632a24f46c1461006457806338af3eed1461007b5780633ccfd60b146100d257806391f9015714610101578063d57bde7914610158575b600080fd5b610062610183565b005b34801561007057600080fd5b5061007961029a565b005b34801561008757600080fd5b50610090610372565b604051808273ffffffffffffffffffffffffffffffffffffffff1673ffffffffffffffffffffffffffffffffffffffff16815260200191505060405180910390f35b3480156100de57600080fd5b506100e7610397565b604051808215151515815260200191505060405180910390f35b34801561010d57600080fd5b506101166104bb565b604051808273ffffffffffffffffffffffffffffffffffffffff1673ffffffffffffffffffffffffffffffffffffffff16815260200191505060405180910390f35b34801561016457600080fd5b5061016d6104e1565b6040518082815260200191505060405180910390f35b600254341161019157600080fd5b600073ffffffffffffffffffffffffffffffffffffffff16600160009054906101000a900473ffffffffffffffffffffffffffffffffffffffff1673ffffffffffffffffffffffffffffffffffffffff16146102505760025460046000600160009054906101000a900473ffffffffffffffffffffffffffffffffffffffff1673ffffffffffffffffffffffffffffffffffffffff1673ffffffffffffffffffffffffffffffffffffffff168152602001908152602001600020819055505b3460028190555033600160006101000a81548173ffffffffffffffffffffffffffffffffffffffff021916908373ffffffffffffffffffffffffffffffffffffffff160217905550565b6000809054906101000a900473ffffffffffffffffffffffffffffffffffffffff1673ffffffffffffffffffffffffffffffffffffffff163373ffffffffffffffffffffffffffffffffffffffff161480156103035750600360009054906101000a900460ff16155b61030c57600080fd5b6001600360006101000a81548160ff0219169083151502179055503373ffffffffffffffffffffffffffffffffffffffff166108fc6002549081150290604051600060405180830381858888f1935050505015801561036f573d6000803e3d6000fd5b50565b6000809054906101000a900473ffffffffffffffffffffffffffffffffffffffff1681565b600080600460003373ffffffffffffffffffffffffffffffffffffffff1673ffffffffffffffffffffffffffffffffffffffff168152602001908152602001600020549050600081111561042b576000600460003373ffffffffffffffffffffffffffffffffffffffff1673ffffffffffffffffffffffffffffffffffffffff168152602001908152602001600020819055505b3373ffffffffffffffffffffffffffffffffffffffff166108fc829081150290604051600060405180830381858888f193505050506104b25780600460003373ffffffffffffffffffffffffffffffffffffffff1673ffffffffffffffffffffffffffffffffffffffff1681526020019081526020016000208190555060009150506104b8565b60019150505b90565b600160009054906101000a900473ffffffffffffffffffffffffffffffffffffffff1681565b6002548156fea265627a7a72315820ed61879af2574c1f91ef9a755a39ac235b592b40c89a1041d965571a8be7489564736f6c63430005100032",
  "source": "pragma solidity ^0.5.0;\n\ncontract Auction {\n    address payable public beneficiary;\n\n    // Current state of the auction. You can create more variables if needed\n    address public highestBidder;\n    uint public highestBid;\n    bool internal end;\n\n    // Allowed withdrawals of previous bids\n    mapping(address => uint) pendingReturns;\n\n    // Constructor\n    constructor() public {\n        beneficiary = msg.sender;\n        end = false;\n    }\n\n    /// Bid on the auction with the value sent\n    /// together with this transaction.\n    /// The value will only be refunded if the\n    /// auction is not won.\n    function bid() public payable {\n        // TODO If the bid is not higher than highestBid, send the\n        // money back. Use \"require\"\n        require(msg.value > highestBid);\n\n        // TODO update state\n        if(highestBidder != address(0x0)){\n          pendingReturns[highestBidder] = highestBid;\n        }\n\n        highestBid = msg.value;\n        highestBidder = msg.sender;\n\n        // TODO store the previously highest bid in pendingReturns. That bidder\n        // will need to trigger withdraw() to get the money back.\n        // For example, A bids 5 ETH. Then, B bids 6 ETH and becomes the highest bidder.\n        // Store A and 5 ETH in pendingReturns.\n        // A will need to trigger withdraw() later to get that 5 ETH back.\n\n        // Sending back the money by simply using\n        // highestBidder.send(highestBid) is a security risk\n        // because it could execute an untrusted contract.\n        // It is always safer to let the recipients\n        // withdraw their money themselves.\n\n    }\n\n    /// Withdraw a bid that was overbid.\n    function withdraw() public returns (bool) {\n\n        // TODO send back the amount in pendingReturns to the sender. Try to avoid the reentrancy attack. Return false if there is an error when sending\n        uint amount = pendingReturns[msg.sender];\n        if(amount > 0){\n          pendingReturns[msg.sender] = 0;\n        }\n\n        if(!msg.sender.send(amount)){\n          pendingReturns[msg.sender] = amount;\n          return false;\n        }\n        return true;\n    }\n\n    /// End the auction and send the highest bid\n    /// to the beneficiary.\n    function auctionEnd() public {\n        // TODO make sure that only the beneficiary can trigger this function. Use \"require\"\n\n        // TODO send money to the beneficiary account. Make sure that it can't call this auctionEnd() multiple times to drain money\n        require(msg.sender == beneficiary && !end);\n        end = true;\n        msg.sender.transfer(highestBid);\n\n    }\n}\n",
  "sourcePath": "/Users/jameswang/Desktop/hw1-source/contracts/Auction.sol",
  "compiler": {
    "name": "solc",
    "version": "0.5.16+commit.9c3226ce.Emscripten.clang"
  },
  "schemaVersion": "3.0.23",
  "updatedAt": "2020-02-21T21:44:53.276Z",
  "networkType": "ethereum",
  "devdoc": {
    "methods": {}
  },
  "userdoc": {
    "methods": {
      "auctionEnd()": {
        "notice": "End the auction and send the highest bid to the beneficiary."
      },
      "bid()": {
        "notice": "Bid on the auction with the value sent together with this transaction. The value will only be refunded if the auction is not won."
      },
      "withdraw()": {
        "notice": "Withdraw a bid that was overbid."
      }
    }
  }
}